:020000041000EA
:1000000000B5324B212058609868022188439860DF
:10001000D860186158612E4B002199600221596106
:100020000121F02299502B49196001219960352056
:1000300000F044F80222904214D00621196600F024
:1000400034F8196E01211966002018661A6600F04E
:100050002CF8196E196E196E052000F02FF8012189
:100060000842F9D1002199601B49196000215960AB
:100070001A491B48016001219960EB211966A021F2
:10008000196600F012F800219960164914480160C1
:100090000121996001BC002800D000471248134993
:1000A000086003C880F30888084703B5996A0420EC
:1000B0000142FBD001200142F8D103BD02B5186610
:1000C0001866FFF7F2FF186E186E02BD00000240BE
:1000D000000000180000070000035F00212200005C
:1000E000F4000018222000A00001001008ED00E03C
:1000F00000000000000000000000000074B24E7A12
:1001000000200420F7010010C3010010C5010010F9
:10011000C1010010C1010010C1010010C101001097
:10012000C1010010C1010010C1010010C701001081
:10013000C1010010C1010010C9010010CB01001065
:10014000CD010010CD010010CD010010CD01001037
:10015000CD010010CD010010CD010010CD01001027
:10016000CD010010CD010010CD010010CD01001017
:10017000CD010010CD010010CD010010CD01001007
:10018000CD010010CD010010CD010010CD010010F7
:10019000CD010010CD010010CD010010CD010010E7
:1001A000CD010010CD010010CD010010CD010010D7
:1001B000CD010010CD010010CD010010CD010010C7
:1001C00000BE00BE00BE00BE00BE00BEEFF3058054
:1001D000103800BEF2EB8871D8020010FC0200104B
:1001E0003402001090A31AE700202249086006C8D4
:1001F00081F30888104720480068002835D10DA4F5
:100200000ECC002902D000F012F8F9E71B491C4A75
:10021000002000E001C19142FCD11A4988471A49E7
:1002200088471A49884700BEFDE701C901C29A42C2
:10023000FBD37047FC020010C00000200C88002097
:10024000488A001010880020B09B0020E89D001014
:100250000000042000000420E89D0010001004208D
:1002600000100420000000007047094800F014F856
:100270000047000008ED00E0000000D0B09B002027
:10028000282E022031310020DD01002025320020FF
:10029000575600000000000001B40248844601BC2B
:1002A000604700BFD132002006005250ABB360530C
:1002B0006498002006005250861C030274980020A7
:1002C000060052505422A29D8098002005005250F2
:0802D000DE65F468E89D0010F2
:1002D800CC020010C0020010B40200108C9800205C
:1002E800A802001098980020A4980020249A0020C2
:0402F800309A002018
:1002FC00F8B5C0460448054B10B5834203D0044BF7
:10030C00002B00D0984710BDB09B0020B09B002064
:10031C000000000006480749091A8B10C90FC918BC
:10032C0010B5491003D0044B002B00D0984710BDDA
:10033C00B09B0020B09B00200000000010B5074CC3
:10034C002378002B09D1FFF7D5FF054B002B02D0EA
:10035C00044800E000BF0123237010BDB09C0020B6
:10036C00000000000C880020054B10B5002B03D0BA
:10037C000449054800E000BFFFF7CCFF10BDC046A4
:10038C0000000000B49C00200C8800200022064BCA
:10039C0010B519201A6002F06DFDD02380221B06C7
:1003AC0092045A625A6110BD80E6002010B50120FB
:1003BC000021404204F0E0F8012007F0F7FDF6E7D9
:1003CC0070B5104D104C002005F022FB002815D004
:1003DC0040222900002005F029FB2100280000F014
:1003EC00FDFC21000200002005F04EFB002005F072
:1003FC0083FB002005F00CFB0028E9D1022007F05C
:10040C00D5FDE0E7CC9C00200C9D002010B582B0FF
:10041C0006F096F800F0F0FA00F0FEF905F09AFC00
:10042C0001F0DAFAFFF7B2FF124B80240193032399
:10043C0064002200009310490023104807F0D4F800
:10044C000F4B2200019302230E4900930E48002308
:10045C0007F0CAF80D4B2200019301230C490093BD
:10046C000C48002307F0C0F807F0AAFA002002B0ED
:10047C0010BDC046EC2A022008950020F906002089
:10048C00AC290120109500207D01002028E20020DD
:10049C0074950020910100200020704770B5180061
:1004AC00084C04AB1D88210000F098FC2B1C402D3F
:1004BC0000D94023220000219BB2002005F0F2F865
:1004CC0070BDC0460C9D0020F0B505001400012045
:1004DC0083B0012905D1137800205B069B0F022BFA
:1004EC0001D003B0F0BD5378012BFAD163791279A6
:1004FC001B021343072BF4D16B46074E9F1D310093
:10050C000222380003F048FB3200210028003B880F
:10051C00083A04F0C7FCE4E78C9600207047C0460C
:10052C0010B50248097802F099FFC04614950020D6
:10053C0010B5014802F092FF449500200048704726
:10054C004C96002000487047609600200048704789
:10055C00E895002070B5002825D0062830D8194B16
:10056C008000C658300008F033FAC0B2041C1F28B3
:10057C0014D8E4B2002820D00023134DAA1CF15C3F
:10058C0001331180D9B202328C42F8D8C023013425
:10059C0064009B001C4328002C8070BD1F24E4B217
:1005AC000028E9D109E0C124074D064B0222196845
:1005BC00A81C03F0F1FAA400EDE7044C024DEAE7A5
:1005CC000020EAE7849A0020AC9E00200203000081
:1005DC0000487047C495002010B50400052002F0B7
:1005EC0049FEFA21890002F0B9FF210002F0B6FFA2
:1005FC00C823024A40080004D05010BD000020500F
:10060C0010B580240A4A0138640253682342FCD195
:10061C0010618020064A400253680342FCD11161EC
:10062C008021034A490053680B42FCD1136A10BD68
:10063C000000205080210B4A10B5490204000138FB
:10064C0053680B42FCD180211061064A4900536863
:10065C000B42FCD1106A1F2C02D820231C1BE0403B
:10066C0010BDC04600002050064B074AD821D25876
:10067C001F2309321340054A5350D039136C1942C9
:10068C00FCD17047084000009CE600200000205080
:10069C00064A074BD821D3581F221340054A535002
:1006AC00D039136C1942FCD07047C0469CE6002030
:1006BC00084000000000205010B50621022002F076
:1006CC007BFB0621032002F077FB00220121032093
:1006DC0002F094FB10BDC046F0B5CE46474680B53F
:1006EC0000220121062087B002F088FB062002F0D0
:1006FC00C1FB2B4D2B4C6359002B0FD01F22D82143
:10070C00294BE3581340294A5350D039136C1942E2
:10071C00FCD007B00CBC90469946F0BD234E244942
:10072C00300005F025FF204BC201E05080235B0216
:10073C00029303000F331B0313431E4A070013409D
:10074C008022D20513430393C0231B0399460493C1
:10075C00194B022205930123002198463000009387
:10076C00013305F091FF049A144B002113404A46C3
:10077C00134330003A00049302AB05F0DDFF052073
:10078C0002F078FD0E4902F0E9FEC823424640080B
:10079C000004F05033689343134333606251ADE768
:1007AC000C4000009CE60020084000000000205097
:1007BC0038970020FFFFFF9F63881144FFFF00C0A4
:1007CC0040420F0070B50F4B0F4D1048EA581F23D5
:1007DC00110009310B40D8214350D0390C00036C67
:1007EC001C401942FAD10A4EAB59002B00D170BDF6
:1007FC00012103688B4303600649044805F02AFF76
:10080C00AC51F4E7084000009CE6002000002050AA
:10081C000C4000003897002010B50221042002F093
:10082C00CBFA0221052002F0C7FA00220121042094
:10083C0002F0E4FA00220121052002F0DFFAE121A6
:10084C000248490202F034FB10BDC0460080034050
:10085C00102170B50C00304A93691C40194241D1EB
:10086C002E4D681E013493691942FCD1136803554F
:10087C009369194201D1402CF4D1002004F008FCFA
:10088C00002834D00122264B00201A6004F0ECFC26
:10089C00A04236D322002900002004F0C9FC00201D
:1008AC0004F08AFC002004F00DFC3F2806D8002040
:1008BC0004F008FC021E14D0102800D91022194C88
:1008CC000020210004F00EFC00280AD02021124A3E
:1008DC00201893691942FCD1237801341360A0428B
:1008EC00F7D170BD002004F0D3FB00280FD10C4CC5
:1008FC002368002BF5D0002004F0C6FC00232360F5
:10090C00EFE7002004F0B0FC041ECBDDC2E70122AF
:10091C00034B1A60C6E7C0460080034054290120EF
:10092C00202A0220B029012070B507F041F9074CAC
:10093C00074D2060FFF78CFF2000296807F0E4FAD0
:10094C000028F7D107F034F92060F3E7E82A0220F9
:10095C00A09A002070B50C00637809781B020B4339
:10096C00A17809040B43E1780906194300D1013140
:10097C00154802F0F3FD154D0600286806F074FFCB
:10098C000120312E03D93221300002F0E7FD104B4B
:10099C001860104802F0FEFA002004F075FC0020EC
:1009AC0004F0DAFB637821781B020B43A178094829
:1009BC0009040B43E1780906194302F079FA286817
:1009CC0006F0B8FF70BDC04600688909EC2A022009
:1009DC00A09A002000800340064B10B5186800292F
:1009EC0001D1002A02D006F0A5FF10BD06F03CFF95
:1009FC00FBE7C046EC2A022070B54F4C200003F0F8
:100A0C000FFB2378180901001A01D2B230319F2B49
:100A1C0000D90731494B10091970002121700100D0
:100A2C0030319F2A00D90731597061780D0928009F
:100A3C000A01D2B230309F2900D9073000219870BA
:100A4C0010096170010030319F2A00D90731D9702B
:100A5C00A1780D0928000A01D2B230309F2900D9A3
:100A6C000730002118711009A170010030319F2A44
:100A7C0000D907315971E1780D0928000A01D2B269
:100A8C0030309F2900D90730002198711009E1708E
:100A9C00010030319F2A00D90731D97121790D0914
:100AAC0028000A01D2B230309F2900D9073000212A
:100ABC00187210092171010030319F2A00D90731B9
:100ACC00597261790D0928000A01D2B230309F2980
:100ADC0000D9073000219872100961710100303182
:100AEC009F2A00D90731D972A1790D0928000A0172
:100AFC00D2B230309F2900D9073000211873100969
:100B0C00A171010030319F2A00D907315973E17965
:100B1C000D0928000A01D2B230309F2900D90730C4
:100B2C00002198731009E171010037319F2A00D818
:100B3C000739D97370BDC046F0290120F02A022074
:100B4C00F8B5124F124D7A682B6804000E009A42C9
:100B5C0018D001325101891A8900891809010D48F0
:100B6C0002F0FCFCFFF738FD7B682B60002C0BD0EF
:100B7C002500082C00D9082531782800FFF740FD06
:100B8C00641B0136002CF3D1F8BDC046042B0220A7
:100B9C00F0E1002040597307F0B5C6461E4B1F4CC0
:100BAC00150098465A68236807000E0000B59A4253
:100BBC000DD001325101891A890089180901184890
:100BCC0002F0CCFCFFF708FD43465B6823603F2333
:100BDC001C003C403B4200D140243B060FD52E006C
:100BEC002500082C00D908252800FFF723FD641BDD
:100BFC0030700136002CF3D104BC9046F0BD2500BA
:100C0C00082C00D9082531782800FFF7F9FC641B63
:100C1C000136002CF3D1EFE7042B0220F0E1002089
:100C2C0040597307F8B5DE464E4645465746674C65
:100C3C00E0B5674E2368726805008B469A420CD06B
:100C4C0001325101891A890089180901614802F0A1
:100C5C0085FCFFF7C1FC7368236001270124BC46A7
:100C6C00200067462840E9086A08AB082240234068
:100C7C000C404100394397003943DF00D318202240
:100C8C001B1939431B18270139435B011340C9B2A7
:100C9C001943802308201943FFF7B2FCFFF7E4FC4B
:100CAC00307E0330FFF7C6FCFF230400307E1C406F
:100CBC000441E4B29846012C26D00227A31EBB4364
:100CCC00DBB2002B0BD02130FFF7B4FCFFF7E0FCBC
:100CDC0020003CBC90469946A246AB46F8BD737EBC
:100CEC00002B42D02F4268D1FFF7A4FCFFF7D0FCB9
:100CFC00737E002BECD000212020FFF781FC00211B
:100D0C000120FFF77DFCE3E7AB0738D4FFF792FC3B
:100D1C00FFF7BEFC5B461F6820203900FFF770FC14
:100D2C00380002F0E7FB010001202140FFF768FCCE
:100D3C002B0602D5284B9B6AB360367B002EC7D09E
:100D4C003000202E0DD9350000212020203DFFF74A
:100D5C0057FC202DF8D83000213840094001203EA6
:100D6C00301A0021FFF74CFCB2E7FFF763FCFFF7EA
:100D7C008FFC737E002BABD02F42A9D1BBE7202078
:100D8C00FFF758FC81460120FFF754FC8246484689
:100D9C0002F0B0FB43465246134043401C4200D085
:100DAC0007345B46002B02D04B465A461360307E0C
:100DBC00FFF740FCFFF76CFCBAE72120FFF73AFC89
:100DCC00307EFFF737FCFFF763FC81E7F0E1002092
:100DDC00042B02204059730700400540F0B54546EE
:100DEC00DE4657464E46E0B5037805001A00803AB9
:100DFC00D2B20C008BB01F2A08D94A1C01920B707E
:100E0C001D2B0ED8C5499A008A58974600F0F6FD5E
:100E1C00050028000BB03CBC90469946A246AB4658
:100E2C00F0BDFF23BE4D2370F3E7A31C99460023AE
:100E3C0063704278831C561E002A35D001229246DC
:100E4C003E320125934610E0FFF722FC4A4641460C
:100E5C002000FFF7A1FE002E00D15CE143460135D6
:100E6C00DB19ED19013E00D285E15A1C1C78904625
:100E7C005B465A4608272340224201D0DF1DFF085B
:100E8C0063B2002BE0DAFFF7EFFB4A464146200045
:100E9C00FFF782FE002E00D180E143460135B944B4
:100EAC00BA44DFE7FF2363709E4DB2E7FF2345781A
:100EBC00637001359A4B01209C462D040543654413
:100ECC00A7E7FF2363704378821C591E002BEBD0DD
:100EDC0001253F2423001078034004420BD0073334
:100EEC00DB080133D218ED180139E3D32300107855
:100EFC0003400442F3D1093209350139EAD2D9E76A
:100F0C000322437888491A405B07DB0F4B7600239A
:100F1C0001320A76834D63707BE7834B1B78012B80
:100F2C0000D124E3FF23814D637072E77E4B994619
:100F3C001B780493012B00D12CE300230320637056
:100F4C00A370E3702B799B0700D42EE18025744BA2
:100F5C00ED029C46054365445BE7837841781B02B0
:100F6C000B43C17809040B4301790906194300D1DD
:100F7C0026E16F4B994200D826E101226A4B5A7048
:100F8C005A6000236B4D637043E70279C3781202F9
:100F9C001A4343791B041A4383791B06134334D039
:100FAC000225042620278278417850B202906248AC
:100FBC001540019516401740834200D903005F4845
:100FCC00856AAC464D08A8468D08AA464D09AB4625
:100FDC00CD09A946D50700D506E14946002900D020
:100FEC008CE34146002900D1A3E35146002901D0EE
:100FFC0000F083FC61465E46019D002D00D077E336
:10100C00002F02D0002E00D072E300234C4D6370F1
:10101C00FFE60025444B1D70FFF7D4FB6570494D6E
:10102C00F7E643780025012B07D801223E4B1A70B6
:10103C00FFF752FB444B1D6001356570394DE8E6F6
:10104C004378012B63D9FF23404D6370E1E642786E
:10105C00F12A00D12BE300D97EE0042A00D11CE355
:10106C00F02A01D000F0AFFC3123A370303B384D97
:10107C006370CEE6811C4078002800D191E00123FA
:10108C00C51DED0801352D041D43254B9C466544BB
:10109C00FFF756FD00236370BBE6431C0693224BFF
:1010AC0099461B78012B00D1A7E08378C61C002B36
:1010BC0068D00221102005E0104206D10136013B18
:1010CC00002B5FD032781142F6D10536F7E7437822
:1010DC00154A164D1373C37881781B020B43138288
:1010EC00437901791B020B4353820023637090E612
:1010FC000023184DA37063708BE6837841781B0234
:10110C0019434B015B1A9B005B18013BFDD100237B
:10111C000E4D63707DE6FFF7BBFA9FE668970020E3
:10112C000100010002000200042B02200200060054
:10113C009FACB90302000500C0C62D00004005405D
:10114C000200070002000100F0E100200200030091
:10115C000300020003000100FE2A00D1B4E2FF2AC2
:10116C0001D000F030FC4023A3700023E370023365
:10117C00C54D63704DE653462D041D43C34B9C4631
:10118C00654446E600236370A370069B0220F51AA3
:10119C00BE4B2D049C46054365443AE6FFF778FAAE
:1011AC007BE68020BA4D400072E7AB78ED782D02DB
:1011BC001D43B64B01359C46AD040543654428E6FA
:1011CC00FF23B44D637024E6B34B994600234A4683
:1011DC005370B24BC81802F0C1F9431E5A1E93410A
:1011EC00C01A4B465860CCE6002900D10DE7614689
:1011FC00826A521A9342FBD807E7E31C0593A84B6B
:10120C00C61C9B4600235A46137083780393002B0D
:10121C0000D1D4E300235F460020A3469846340057
:10122C0007930293631C9A46049302232678334255
:10123C0000D1B0E04346002B2AD04B461D8A112327
:10124C003340012B08D154E0002D00D182E13B78D2
:10125C00013D002B00D07DE10E2009A9FFF7E2FC37
:10126C000228F1D000239846012839D1099B059911
:10127C001A0A0B704A701A0C1B0ECB7043468A70FC
:10128C000A1D002B03D073B24046002B6BDB05927A
:10129C00F30600D4BDE053461A785B781B021A4360
:1012AC0053469B781B0413435246D27812061A43BA
:1012BC00631D04934B4692465C8AF30720D54B463C
:1012CC001D8A05E0002D0BD03B78013D002B07D18A
:1012DC0000213000FFF7A6FC0228F3D001280FD024
:1012EC005C46BB462FE0002DFAD03B78013D002B2D
:1012FC00F6D1300009A9FFF795FC0228F3D0B3E72B
:10130C004B461D8A05E0002D39D03B78013D002B62
:10131C0035D1300009A9FFF785FC02000228F2D074
:10132C0001282CD14A46099B526913409A4500D199
:10133C0015E1002C00D116E13B78013C002BDFD0ED
:10134C005C46BB46103002221021049E039B05E034
:10135C00294206D10136013B002B49D035782A426F
:10136C00F6D10536F7E74B469B681A0A0B714A71A2
:10137C001A0C1B0E8A71CB710831059188E749460E
:10138C00099B49695C460B40BB469A45DBD0102053
:10139C001043C0B2D7E74346002B00D09CE0524626
:1013AC00534652781B7812021A4353469B780534E5
:1013BC001B041A435346DB781B0613432022099364
:1013CC00324200D1A8E04A465361002301209846DE
:1013DC00029B013302933B78002B00D052E2039B1B
:1013EC00013B0393002B00D01CE726005C46BB4658
:1013FC00012800D1BDE1029B019A6370069BA0708D
:10140C00F51A059B2D04981A204B05439C46654400
:10141C00FFE44B461C8AF3070ED54346002B48D0FD
:10142C00002354460793D3E7002C00D158E73B78B0
:10143C00013C002B00D053E7300009A9FFF7F2FB69
:10144C000228F1D0012800D04AE776B2002E0BDA40
:10145C004B469B6805991A0A0B704A701A0C1B0EA6
:10146C00CB700B1D8A700593099B05991A0A0B709A
:10147C004A701A0C1B0ECB700B1D0593002354469F
:10148C008A700793A4E7C046040002000100010023
:10149C000200220002000500042B02209FACB903BD
:1014AC00202B0220002C55D03B78013C002B00D087
:1014BC0016E700213000FFF7B5FB0228F2D0012817
:1014CC0000D00DE776B2002E00DAE0E1002307939E
:1014DC000133984654467BE74B461D8A07E0002DA6
:1014EC0000D1FDE63B78013D002B00D0F8E60E2044
:1014FC0009A9FFF797FB0228F1D0012800D0EFE6ED
:10150C00099B05991A0A0B704A701A0C1B0ECB70AA
:10151C000B1D8A70059342E74B461B8A1D0007E0A2
:10152C00002D00D1D7E03B78013D002B00D0D8E056
:10153C00300009A9FFF776FB0228F1D0012800D072
:10154C00CFE076B2002E00DA96E001230793002359
:10155C0098463DE700235C469846BB46F3E60023DD
:10156C00049C079334E75C461120BB46EBE6C2783B
:10157C00837812021A43037909A91B041A4343798D
:10158C0000201B0613430993FFF74CFB0023CD4DA2
:10159C0063703EE4231D98460393CB4B9B4600237C
:1015AC005A461370C37882781B021343029300D1FE
:1015BC00DBE00779BA0700D504E1421D9246002210
:1015CC00029209AA90464A465D468146A346444685
:1015DC00984604925246534652781B7812021A438C
:1015EC0053469B781B041A435346DB781B06134364
:1015FC00099304239C46049BE2441E8A05E0002EBA
:10160C0033D02B78013E002B2FD121003800FFF76F
:10161C0009FB0228F3D0012827D1029B0133029346
:10162C0001235B429C46E0444346002BD2D15C46EE
:10163C00AB46049B4D465F461E8A05E0002E09D042
:10164C003B78013E002B05D100210E20FFF7EAFA72
:10165C000228F3D0029BDAB21B0ADBB26270A370D1
:10166C00019A039BE070981A6CE4029B4D46DAB227
:10167C001B0A5C46DBB2F1E74B469B6805991A0ADC
:10168C000B704A701A0C1B0ECB70012307930B1DA9
:10169C00059300238A7098469AE606228B49A01C73
:1016AC0002F07AFA06238A4D6370FFF7B2FB4023EF
:1016BC00A3700233E370333B237100236371043353
:1016CC00844D6370FFF7A5FB0223A370013B824D91
:1016DC006370FFF79EFB2600A8465C460496BB464B
:1016EC0031E6260000235C469846BB4604962AE663
:1016FC00826A521A9A4200D27FE486E45946002943
:10170C0000D00EE142460100002A00D120E16046E3
:10171C005746019D002D07D1002E01D0002F03D17B
:10172C00029A002A00DB70E48A6A121A9A42F1D3F8
:10173C006BE45A4661465546002A0AD1002E00D168
:10174C0063E4002D00D160E4826A521A9A42F5D308
:10175C005BE4002E01D0002D02D1002F00D154E407
:10176C00826A521A9A42F4D34FE4002000230022DA
:10177C0074E74346002B00D19BE04B461D8A09AB16
:10178C00A0461F005C4607E0002D00D1FBE023784B
:10179C00013D002B00D0F6E039000E20FFF742FA95
:1017AC000228F1D04446012800D024E6099B059973
:1017BC001A0A0B704A701A0C1B0ECB700B1D8A7018
:1017CC00059318E6049B3B4217D04B46A2461E8A53
:1017DC005C4607E0002E00D1D7E02378013E002BB9
:1017EC0000D0D2E000213800FFF71CFA0228F1D01B
:1017FC00A3465446012800D0E9E00022029B029245
:10180C0009AAC2469046013B4A46A9465D46A346F4
:10181C00444698460592534603934346002B2CD0DE
:10182C00059B1E8A07E0002E00D11EE72B78013E97
:10183C00002B00D019E721003800FFF7F3F902283C
:10184C00F1D0012800D010E752465146099B137085
:10185C001A0A4A701A0C8A7004229446039A1B0EB8
:10186C00D370029B4246013302934346E244013B50
:10187C00002A00D17DE09846CDE701333B42CFD022
:10188C000E27CDE726005C460496BB465BE54B462F
:10189C009B6805991A0A0B704A701A0C1B0ECB70B8
:1018AC0000230793013398460B1D54468A70059309
:1018BC008EE5079B002B00D19DE54B465F461D8AAC
:1018CC0014E0C04602000600202B02206097002086
:1018DC00080002000600020003000200002D00D1E7
:1018EC0089E53B78013D002B00D084E500210E20DA
:1018FC00FFF798F90228F1D07DE5062165465E4692
:10190C000A40002A07D1002F01D1FFF77EFB002EE1
:10191C0001D1FFF77AFB816A491B8B42F1D8FFF7A3
:10192C0074FB5146002934D161464646019D002D79
:10193C0007D0002E05D0826A521A9342F7D8FFF7CF
:10194C0064FB002FF7D1029A002AF4DBFFF75DFB52
:10195C0061465546002E01D0002D04D1029A002A72
:10196C0001DBFFF752FB826A521A9A42F2D3FFF75D
:10197C004CFB5146029B4D46DAB21B0A5C4604985E
:10198C00DBB203916AE6444635E5002354461A005F
:10199C0064E6242166464746019D0A40002D07D087
:1019AC00002F05D0816A891B8B42F7D8FFF72DFBDE
:1019BC00002AF7D102990029F4DBFFF726FB00235C
:1019CC001800029317E5034D6370FFF722FA00230A
:1019DC001A0043E6020002003D21074B10B5596086
:1019EC0000210022197364211A805A610132196195
:1019FC001A83FEF761FE10BD042B02200378014808
:101A0C000B70704701000100024B9C466144890039
:101A1C00016070474000003410B5040000F038FD40
:101A2C0001002000FFF7F0FF01235B426360BFF36E
:101A3C005F8F10BD10B5040000F02AFD01002000DE
:101A4C00FFF7E2FF01235B42636000232372BFF3C5
:101A5C005F8F10BD10B50400012000F025FD034B75
:101A6C00C3189B002360BFF35F8F10BD4000003490
:101A7C0083680B4810B58446614462440901120125
:101A8C009A18591854684B6801209C4201D802D00E
:101A9C000020C0B210BD12680B689A42F9D8F7E763
:101AAC00FFFFFF0F074810B50268EFF3108172B605
:101ABC001368002BFCD0BFF35F8F04F0E5FF002010
:101ACC00002110BD98290120F8B5574645464E46D1
:101ADC00DE46E0B599460CAB19780DAB1B780500CA
:101AEC0090469A460768002912D1BE7B002E45D03D
:101AFC0074003B68A419033C1B195A783100BA7363
:101B0C00002A00D1FA7300229A705A701A7003E0FE
:101B1C000E004C006418033C2C4B00229C46AB6816
:101B2C0061449C464346090161440B604B464B6043
:101B3C000A9B8B600B9BCB603B681B199A705A708D
:101B4C001A707B7B9B46002B2CD032005946B86810
:101B5C007B6898473A68002817D05B4658465B006C
:101B6C005B441419033BA070D118D35C002B00D03C
:101B7C0063705B460E707B73B34514D030003CBC75
:101B8C0090469946A246AB46F8BD5B465B005B446B
:101B9C00033BD3189E701119125D002A00D05A70A5
:101BAC005B460B707E7342464B46287D00F03AFB39
:101BBC00041E06D05346002B03D13100286801F0D7
:101BCC00BDF80E9B002BD9D01C70D7E7FFFFFF0F81
:101BDC00F0B5DE4657464E4645460023E0B58BB081
:101BEC000893664B8200D45800239B46099000F062
:101BFC009FFA626806000F00EFF3108572B6136847
:101C0C00002BFCD0BFF35F8F23689C465B7B99460F
:101C1C00002B68D0A2685A4B90464B441B01984449
:101C2C0043461A685B6810001900801BB9410029F3
:101C3C0063DD099800F0F6FA002300229846002391
:101C4C000692079300239A466368BFF35F8F5A4648
:101C5C001A6085F310885346002B08D10028C6D192
:101C6C000BB03CBC90469946A246AB46F0BD089BD7
:101C7C00414618024B461843D047626806000F00D5
:101C8C00EFF3108572B61368002BFCD0BFF35F8F97
:101C9C00002F4FDB33003B4302D02369002B60D174
:101CAC002368DA7B002A07D051008A1819688C4601
:101CBC0049466244033A51709A7B002A01D14A4644
:101CCC009A734A46DA734B46E168013BCA5C0132AF
:101CDC00CA545B4623616368BFF35F8F5A461A6030
:101CEC0085F3108883E70023002298460023069290
:101CFC000793002300209A46A6E7002901D100286B
:101D0C0097D10021604600F077FF43461A685B6864
:101D1C000692079343469B689A464346DB6898466F
:101D2C00E3684B44013B1B7808931B02034323617C
:101D3C00002089E72369002BB2D0069A079B921BDF
:101D4C00BB41002B15DB59460491012103914946F7
:101D5C00029141460191514620000091FFF7B4FEDB
:101D6C00B7E700F0E5F932003B0012184B41002BAD
:101D7C00E9DA0122034B5242E5E7C0468CE600202B
:101D8C00FFFFFF0FFFFFFF7F10B5144C6368002BA4
:101D9C0004D00A211248FFF737FE10BD2300114A68
:101DAC001021206800F042FE032000F0B5F903205A
:101DBC0000F0AAFA03200C4900F0EEF900F068FBE1
:101DCC000A4B9C4603232375D0231B061B686044D7
:101DDC006375074B80006060DC60DAE7A49A002032
:101DEC009829012041180020A1190020400000343E
:101DFC008CE6002000487047A49A0020F0B55746A6
:101E0C004546DE464E46E0B585B0019310AB1B78D7
:101E1C0000270393002380469A46009243465A6853
:101E2C00EFF3108972B61368002BFCD0BFF35F8FF1
:101E3C0043461D68AC7B002C4FD066002B683619CE
:101E4C00033E9B195A78AA73002A00D1EA734246C2
:101E5C009F705F701F7092684A4B94460099019A6C
:101E6C00E3181B01634419605A600E9A9A600F9A2A
:101E7C00DA602B689B199F705F701F706B7B9B46A1
:101E8C00002B46D022001900A8686B6898472A6876
:101E9C00002831D05B4658465B005B449619033BE7
:101EAC00B070D118D35C002B00D073705B460C70F3
:101EBC006B735C452ED04346DB681B19013B1878CD
:101ECC0043465B68BFF35F8F1F6089F310885346EE
:101EDC00002B2ED10002204307E05B68BFF35F8F1D
:101EEC001C6089F310880120404205B03CBC904630
:101EFC009946A246AB46F0BD5B465B005B44033B98
:101F0C00D3189C709119925D002A00D05A705B46D0
:101F1C000B706C734346187D009A019B00F082F99C
:101F2C0082460028C7D043462100186800F006FFFF
:101F3C00C1E7039B002B23D00E9B00200F999847E1
:101F4C00030004000D000B431AD000290ADA009A92
:101F5C00019B121BAB4100920193002B0ADB039BEC
:101F6C009A465BE700F0E4F824184D410094019583
:101F7C00002DF4DA0123044C5B4200930194EEE74C
:101F8C000020B2E7FFFFFF0FFFFFFF7F70B5426835
:101F9C000400EFF3108572B61368002BFCD0BFF36E
:101FAC005F8F2068CAB2437B93420AD0FF230B4059
:101FBC005E00F3180668B4466344033B9B78002B21
:101FCC0013D0E668FF23B4460B406344013B090A77
:101FDC001E78C9B28E420DD000206368BFF35F8FAC
:101FEC0000221A6085F3108870BD22698A42F3D1F1
:101FFC002361F1E7110000F0A1FEEEE770B5EFF3FD
:10200C00058305000C0084B0002B0FD0104B002072
:10201C00596A8C4203D89B6A0130AB4201D304B09D
:10202C0070BD641A611E8C41E0B2F8E7094E029350
:10203C000193094B0200009330000B00FFF7DEFE0A
:10204C00011EE3DD20BF3000FFF7A0FFDEE7C04636
:10205C0000400540A49A002075180020F0B5EFF35D
:10206C000582D6464F4646461000C0B51038EFF3F1
:10207C00108872B6214C2368002BFCD0BFF35F8F05
:10208C000123190081401E4D1F006963AA461D4D96
:10209C0029601D4D2E78AC463500C5402F402B4293
:1020AC0015D05346194D5F6A83005D59AF4218D362
:1020BC00174A8E439B5862461670BFF35F8F0022FF
:1020CC00226088F31088002B06D0984704E0BFF3F9
:1020DC005F8F276088F310881CBC90469946A246F7
:1020EC00F0BD0C4B92009C46624413681360BFF326
:1020FC005F8F0023236088F31088EDE7280100D060
:10210C00004005403C700540E52A02209C29012036
:10211C00E0E00020D03F054010B50100024A034822
:10212C0000F036F910BDC046E0970020E32A0220EB
:10213C00034B596A0A00986A596A8A42FAD1704765
:10214C000040054070B504000D00124A536A190096
:10215C00966A536A8B42FAD13000190024184D410B
:10216C00AB4211D80ED02B000A494A6A9A42FCD3D2
:10217C0007D1084A02E0516A994202D1916AA14200
:10218C00F9D370BDA642EED9012301246442E517B0
:10219C005B42E9E70040054070B504000D00EFF329
:1021AC00108672B61A4A1368002BFCD0BFF35F8FEF
:1021BC00002D1BD0200000F099F9164981420AD05D
:1021CC00200000F09BF90121200000F07DF9012393
:1021DC00A340114A1360114BA400E550BFF35F8F6D
:1021EC0000220B4B1A6086F3108870BD0B4BA200BB
:1021FC00D5500122A2400A4920000B7893430B7062
:10220C00044900F085FA0021200000F05DF9E5E7B3
:10221C00280100D02D1E002038600540E0E0002091
:10222C00E52A0220F0B54F46D6464646C0B5070013
:10223C00304C616A0D00A66A616AA942FAD18B42E0
:10224C0008D805D001201CBC90469946A246F0BD8A
:10225C00B242F7D9EFF3108972B62748016800290A
:10226C00FCD0BFF35F8F01252449BD408C46097813
:10227C00204C0E002E438846F1B28A4661465046E9
:10228C000870391D1E48890065630A51B9000B504E
:10229C00216A0020294219D0616A0800A66A616A85
:1022AC008142FAD18B4219D801D1B24216D8C2451B
:1022BC001DD0104B1F201D625D6301230740BB40E6
:1022CC00104A1E381360634642461A70BFF35F8F84
:1022DC000022094B1A6089F31088B4E70020BFF381
:1022EC005F8F0022044B1A6089F31088ABE7012042
:1022FC00ECE7C04600400540280100D0E52A02204A
:10230C009C29012080E200E010B5EFF3108472B636
:10231C000A490B68002BFCD0BFF35F8F012383406D
:10232C00074A0848136202789A430270BFF35F8F22
:10233C0000230B6084F3108810BDC046280100D028
:10234C0000400540E52A0220024B18688007C00FA8
:10235C007047C04600C006408023DB051868000F9C
:10236C007047C046EFF3108072B6034A1368002B17
:10237C00FCD0BFF35F8F70472C0100D0BFF35F8F91
:10238C000022024B1A6080F3108870472C0100D099
:10239C00F8B5EFF3108772B60E4E3368002BFCD0F5
:1023AC00BFF35F8FCB08C4180725A446C45C012378
:1023BC000D40AB4018002040234208D16246234315
:1023CC001370BFF35F8F306087F31088F8BD100077
:1023DC0001F044F82C0100D0F8B5CE4647468C46A7
:1023EC0080B5EFF3108872B6214D2C68002CFCD010
:1023FC00BFF35F8F9A422CD8D4080721055D0619CC
:10240C00012411408C402C421FD0072189460639EB
:10241C0009E0D408055D06194C460F001440A7408E
:10242C003C002F4211D001329342F2D201204042A3
:10243C00BFF35F8F00220E4B1A6088F310880028C0
:10244C000FDB0CBC90469946F8BD2C431000347041
:10245C00EEE7BFF35F8F00232B6088F31088012019
:10246C0040426346002BECD0089800F0F7FFC046C2
:10247C002C0100D00021044B044ABFF35F8F02C330
:10248C009342FAD17047C046000100D0800100D0C1
:10249C00044A1078431CDBB2172B00D9102313709D
:1024AC007047C046CC9A002000B5054B83B00100A4
:1024BC00009318221F230348FFF78EFF03B000BDC3
:1024CC0004980020FCE1002001238340002904D063
:1024DC00034A1360034A13607047034A1360FBE717
:1024EC0080E200E000E100E080E100E0024B10300F
:1024FC009B688000C058704700ED00E070B50D007F
:10250C00EFF3108672B60F4A1368002BFCD0BFF3A2
:10251C005F8F0D4B10309B6884001B590B4A934204
:10252C0003D09D4201D000F0B7FF074B9B681D51B3
:10253C00BFF35F8FBFF35F8F0022024B1A6086F3ED
:10254C00108870BD240100D000ED00E0CD0100101A
:10255C00F0B557464E464546DE46E0B5894683B053
:10256C0005001700EFF3108A72B65D4A1368002B52
:10257C00FCD0BFF35F8F00205A4B18569B460028A7
:10258C006CDB5A464400584E2418A4003319984664
:10259C009B7910351370554BAA009B6801929B5880
:1025AC009C469B1B2F2B28D8012261469143CB794B
:1025BC00BB4208D86AE053009B189B00F318DD79E6
:1025CC00BD4251D9190006228A56002AF3DA0B1D96
:1025DC009B46474E43465C46043B1B1B1B05454C28
:1025EC005B0D23438B80887141468A714A46424B6E
:1025FC008E800B60CF718A601BE0404B9C4542D1B2
:10260C0042463F4B023413803E4B3619043B9E1B13
:10261C003605384B760D1E433B4B56809380FF237B
:10262C00D771937143464A469A60012342461A4336
:10263C00944661462D4B019A9B689950BFF35F8F6E
:10264C00BFF35F8F0022264B1A608AF3108803B009
:10265C003CBC90469946A246AB46F0BD00F01CFF30
:10266C005B46002018568CE70B1D9B468B88043468
:10267C005B051B155B4436199E1BE0233605760D56
:10268C001B021E43A6E700F007FFB9E745460B0007
:10269C001E489B1B5B415843000D194B2B80A31C00
:1026AC009C46B4446546174B0434043B5B1B1B052A
:1026BC00104D5B0DAC462B43454636196B800B1FFA
:1026CC009E1B6346A87148463605760D1E430A4B81
:1026DC00AE80EF71A8600B60434613439C46A8E79D
:1026EC00240100D0E42A0220D09A002000ED00E062
:1026FC0001BD000000E0FFFF01488047CD01001044
:10270C0000A1FFFF009B002001BDFFFFAAAA000053
:10271C00F0B5DE4657464E464546E0B50C0083B054
:10272C00EFF3108972B6594A1368002BFCD0BFF333
:10273C005F8F574B9A68030010339F00D559554A49
:10274C009046954232D0A54243D0534EAA1B2F2A15
:10275C002CD80122824092465146504A12681140B0
:10276C00019151464E4A1160BFF35F8FEFF3058222
:10277C009346002A33D101232A009A4393689C4242
:10278C0008D178E04B005B189B00F3189968A142C4
:10279C002AD01A00062151560029F3DA019B002B8E
:1027AC0019D052463F4B1A603C4B1A60384B9B6811
:1027BC00DD51BFF35F8FBFF35F8F0022334B1A6085
:1027CC0089F3108803B03CBC90469946A246AB46B0
:1027DC00F0BD1500EAE75246314B1A60E6E793422A
:1027EC00C9D000F059FEC6E706215956002922DB54
:1027FC004A005018800034188046A0689860E07930
:10280C00D871062020569871A0797F2824D8A488E6
:10281C00F01A6405241544440019E0240005400D09
:10282C0024022043988052181F4B9200B6181A7835
:10283C001970B271B2E7594600290FD1FF3191716D
:10284C001A49918018490A789A71194A9B1B5B4165
:10285C005A43120D0A70A1E71648E3E7164A1749C6
:10286C00D21A083A5002400D01439980144952087B
:10287C000A43DA8092E70621515613000029B7DA91
:10288C005A46002AEAD14546DCE7C046240100D06E
:10289C0000ED00E0CD010010D09A002000E100E036
:1028AC0080E100E080E200E0E42A022001BDFFFFAD
:1028BC00AAAA000001BD00000A9B002000F0FFFF47
:1028CC0000F8FFFF032310B50400074A1840944694
:1028DC00C0009C43FC3383406444226881409A438B
:1028EC0013000B43236010BD00E400E0F0B5EFF3E0
:1028FC00058101240443EFF3108672B6214A136854
:10290C00002BFCD0BFF35F8F1F4B05001F4AED1A45
:10291C006D416A43120D1E4D8900AF6852B27F584B
:10292C00A7421CD00621595691421CD0122159564F
:10293C00914222D01E215956914220D02A2159561B
:10294C000324914210D0134B19781A708171BFF384
:10295C005F8F00220B4B1A6086F31088F0BDAB68BA
:10296C000D4C5C50EFE700246100091989005B18DD
:10297C00FF21997109499980E5E70124F4E70224C4
:10298C00F2E7C046240100D0D09A0020AAAA000089
:10299C0000ED00E0E42A0220CD01001001BDFFFF94
:1029AC00054B064A1360064A136053609360D3606C
:1029BC0013615361936170478080808000E400E074
:1029CC0004E400E070B505000E001400002924D0CA
:1029DC00002A24D080686B689847296800280ED09C
:1029EC0063001B197200033B9219CB18033A9E70BB
:1029FC0088188A5C002A14D1047030000EE0730031
:102A0C009B196200033B1219CB18033A9C7088186F
:102A1C008A5C002A00D05A700670200070BD080035
:102A2C00FCE75A7004703000F8E7C04630B583609C
:102A3C000023CCB243730133047342608373C473B9
:102A4C000D000068012C06D9421C0133DBB2137057
:102A5C0003329C42F9D1FF2129404B005918002325
:102A6C0040180338437030BDF8B5CE4647460600D3
:102A7C000C0080B5002907D04D0003686D18033D8C
:102A8C005A195778002F04D120000CBC9046994657
:102A9C00F8BD7900C91903398846434459788946E9
:102AAC0000215970517073683A0021008068984772
:102ABC003368002814D042469A18947059195B5DFB
:102ACC00002B00D053700F70270049463000FFF7E1
:102ADC00CBFF390002003000FFF774FF0400D3E78E
:102AEC00424641465D19AF709A185B5C002B00D0D2
:102AFC006B701470E9E7C046F0B557464546DE46A4
:102B0C004E46E0B50D006B0001685B19DF1E04003A
:102B1C00C85D83B00192CA19002850D043001B181D
:102B2C00033BCB185E78B446002E1AD1019E002EC2
:102B3C0042D0E67B002E04D073009B19CB18033BCC
:102B4C005D70A37B002B00D1A573E57300282FD1FA
:102B5C000023537003B03CBC90469946A246AB464A
:102B6C00F0BD72006244033A89184A7890460022FC
:102B7C004A7091465A70010032002000FFF722FF84
:102B8C0043468246002B07D05B0021684344033B3D
:102B9C00CB185A78002A16D1424651462000FFF72E
:102BAC0011FF2168019BCA19002BC2D10028CFD07C
:102BBC0043001B18033BCB1800219970C8E7019BFD
:102BCC00002BB6D1C4E75000801803380918487898
:102BDC00834648464870587041462000FFF7F2FE85
:102BEC00594680462000FFF73FFF41460200200077
:102BFC00FFF7E8FE8046CFE7F0B54E464546DE4689
:102C0C005746E0B5467B040075000068AD19033DDE
:102C1C0083B00191415D4219002952D04B005B18E1
:102C2C00033BC3185F78BC46002F1CD1019D002DBF
:102C3C0044D0E57B002D04D06B005B19C318033B1B
:102C4C005E70A37B002B00D1A673E673002931D1F3
:102C5C00002330005370617303B03CBC904699461E
:102C6C00A246AB46F0BD7A006244033A8018427823
:102C7C0093460022427091465A7020003A00FFF7AA
:102C8C00A1FE5B468046002B07D05B0021685B44AD
:102C9C00033BCB185A78002A17D15A4641462000DC
:102CAC00FFF790FE019B010020684219002BC0D158
:102CBC000029CDD04B005B18033BC3180020987043
:102CCC00C6E7019B002BB4D1C2E750008018033833
:102CDC000918487882464846487058705946200072
:102CEC00FFF770FE53468346002B07D05B0021682C
:102CFC005344033BCB185A78002A06D15946524606
:102D0C002000FFF75FFE8346C7E7500080180338AA
:102D1C00091848464F784870587051462000FFF704
:102D2C0051FE390081462000FFF79EFE4946020005
:102D3C002000FFF747FE8246E0E7C04670B504006E
:102D4C0000292CD0437B8B422ED0056848004018BC
:102D5C00033828188278002A21D053009B18033B93
:102D6C00EA5CEE188A4202D11BE0002A08D053001C
:102D7C009B18033BEB185A788A42F6D142785A706A
:102D8C0000230122837043702000FFF7B5FE617BA6
:102D9C0002002000FFF716FE6073012000E0002007
:102DAC0070BD43783370EBE701221900FFF7A4FEE6
:102DBC0060730120F4E7C046094A83009446402220
:102DCC00634410B51C68C0006240C02414408022CB
:102DDC00520113431C60034B9C466044416010BD80
:102DEC0004C0014000400140034BC0009C466044BD
:102DFC0043681F2018407047004001400A4B800078
:102E0C009C4604236044002901D00C230821002A8D
:102E1C0000D10B00026853400C221A4080235B0146
:102E2C00184302607047C04604C00140074BC00005
:102E3C009C466044036809045940C0239B02194016
:102E4C0080235B01184301607047C0460440014079
:102E5C00074BC0009C466044036809035940C023DB
:102E6C009B01194080235B01184301607047C046E9
:102E7C00044001400123D0228340120693629361E7
:102E8C00094A83009446402263441968C0004A40B2
:102E9C00C02111408022520113431960034B9C4600
:102EAC00052360444360704704C00140004001406A
:102EBC00F8B5040006200D0000F0DCF9002845D020
:102ECC002B4B2C49E3185A4253418022D20394468F
:102EDC005B421340284A63441360284A136018006D
:102EEC008A689043FBD1224B8021E3185A4253410C
:102EFC00234A5B0049000620995200F0BBF92900D7
:102F0C00C00000F02BFBC30921D140270122260071
:102F1C0080256262A36200232C36AD0135432B6001
:102F2C00062000F0A7F93900800000F017FB6023A1
:102F3C00E26A53406E221A4080235B0133431A60CD
:102F4C00104B236310232B600D3BA364F8BD0E4A7A
:102F5C00934203D900230D4F0D4AD8E77F2210402E
:102F6C00013040089F011A003F180300CFE7C0460C
:102F7C000080FCBF00C0004000E0004000F00040BA
:102F8C00242B022001030000FEFF0000C0FF3F00C5
:102F9C00FFFF0000064B9C4660444342584180238F
:102FAC00DB039C4640421840024B6044186070475B
:102FBC000080FCBF00E0004030B50C2083B000F076
:102FCC00B3F9FFF7C1F900280ED0944B944A1A605C
:102FDC005A609A60DA601A615A619A61DA611A620F
:102FEC00904A5A6203B030BD8F4CA06700F0A4F930
:102FFC0001228E4B1A60636C012BFCD103228C4B8B
:10300C001A60894A936B012BFCD101330121894A47
:10301C0089480093043300F033F90523874A009361
:10302C000121874800F02CF9864B5A68FF2A02D8F8
:10303C00802252005A608022784C7D4B216912010B
:10304C00804D1A60002905D0606900F087FA0130C4
:10305C000138FDD1E0217B4B02201A6811408022FF
:10306C0052012A4311601968484003210140116044
:10307C0004219A681142FCD08022802192012A43BB
:10308C0009011160802252005A606F4B23616F4B13
:10309C005968FF2900D85A6003226C48634B012100
:1030AC001A60020093681942FCD0E02513681D4099
:1030BC0080235B0103431D6012684A4003211140C9
:1030CC0019600221614A93681942FCD08023802147
:1030DC009B0103430901196080215D4B490051603C
:1030EC0063615C4B5A68FF2A00D8596080225A4BA6
:1030FC00E1691201574D1A60002905D0606900F092
:10310C002DFA01300138FDD1E02252490B681A40EA
:10311C0080235B012B431A60802380229B012B436D
:10312C0012011A6080223E4B52004A60E3614B4B05
:10313C005968FF2900D85A608022494B216A120134
:10314C00464D1A60002905D0606900F007FA01307D
:10315C000138FDD1E02241490B681A4080235B0104
:10316C002B431A60802380229B012B4312011A608F
:10317C00802380225B004B60294BD2022362394BA7
:10318C005968914200D25A608022374B616A120111
:10319C00344D1A60002905D0606900F0DFF9013068
:1031AC000138FDD1E0222F490B681A4080235B01C6
:1031BC002B431A60802380229B012B4312011A603F
:1031CC008023DB024B60174B6362284B5A68FF2A43
:1031DC0002D8802252005A608022254BA16912012C
:1031EC00224D1A60002905D0606900F0B7F9013052
:1031FC000138FDD1E0221D490B681A4080235B0188
:10320C002B431A60802380229B012B4312011A60EE
:10321C0080235B004B600E4BA361E3E600E20020D1
:10322C00006CDC021BB70000008000403CB000408A
:10323C0030B00040002F685900800240008C864757
:10324C0000C0024030800040001BB7003C800040B2
:10325C00405973075480004054B0004060800040D7
:10326C0060B000406C8000406CB000404880004072
:10327C0048B00040014B8000C058704700E200206D
:10328C00F8B504000C2017001D000E0000F066F9C4
:10329C004101091A8B01591AC90009188901380012
:1032AC0000F05CF9069A2B04120313432268002ADF
:1032BC0021DB194AA21851424A41802149018C460E
:1032CC0052420A40154962440A6015490A60154980
:1032DC0017008D68AF43FBD1C021221D890111431A
:1032EC0021222660A0600A602268002AFCDAE360D2
:1032FC0008230B60F8BD3F2221680A40B242D8D1A6
:10330C00A2681205120D8242D3D1EE21E268C902E5
:10331C000A409A42CDD1EDE70040FDBF00E00040ED
:10332C0000F0004000C000408023024A9B00034391
:10333C00D362704700800540AA23064A1B01136024
:10334C002F230549D360054B19605368002BFCDA19
:10335C007047C0460040024000B0FA0000600240D6
:10336C002C4B2D4A70B51A602C4A2D4B2D491A60E6
:10337C0010008B689843FBD12B4C2C4B9C4209D2F0
:10338C00013B1D1BAD080135AD002D1908CC98472C
:10339C00AC42FBD1FFF710FE254A214B1A60214AA3
:1033AC009368DB018033FBD14022224B224C234D0E
:1033BC009A675A671A67DA66AC4208D2236820000B
:1033CC00002B21D00C34FEF735FBAC42F6D31C4C51
:1033DC001C4DA168C022280000F0DEFBA560FFF7A1
:1033EC0049F8FFF7DDFAFEF7CFFC174C174B9C4260
:1033FC0009D2013B1D1BAD080135AD002D1908CCC0
:10340C009847A542FBD170BD0834FEF705FBAC42D2
:10341C00D4D3DCE700E00040BFCDFBFEFE7F3C00D8
:10342C0000F0004000C00040949B0020A49B0020B2
:10343C00FFFFFF0100F00140849B0020949B0020C3
:10344C0000ED00E000000020A49B0020B09B0020B9
:10345C0000BEFDE710B5FFF7FBFFC0460FB400B58B
:10346C00084883B000F0BEFC049B002B07D005A9D4
:10347C001800019100F01EF8034800F0B3FC012085
:10348C00FFF7E6FF209800204095002010B501487A
:10349C00FFF7E4FF3098002010B50148FFF7DEFF7E
:1034AC004098002010B5002800D110BD00F04EFC53
:1034BC00FBE7C04610B5094A0300146884B0002C21
:1034CC0008D0012200910648524203A9A0470120CE
:1034DC0004B010BD00F086FC0020F9E77CE600206B
:1034EC007532002001480421014B1847209B002015
:1034FC00F1320020014B1B6818470000209B002074
:10350C00142310B50100188804331B88984710BD8C
:10351C00162310B50100188802331B88984710BD7C
:10352C00F0B5C64600B5002916D0142304000125B9
:10353C0098461827890046184346216818883B8806
:10354C00984701C4431E984140420540A642F3D11E
:10355C00280004BC9046F0BD0125F9E7114A936F91
:10356C009B0813D210665166002905D0FFE7FFE7D0
:10357C00FFE7516F106F704704B5002801D0002091
:10358C00C04305F023FA002104BDC046F0B5146E0B
:10359C00556E576F166FFFF7E5FF14665566576744
:1035AC001667F0BD000000D094464A4A926F92080C
:1035BC00624601D228E0C046F0B5464E346E756EB8
:1035CC00776F366F00F020F89446424A14665566C1
:1035DC00576716676246F0BD94463E4A926F920852
:1035EC00624601D254E0C046F0B53A4E346E756E68
:1035FC00776F366F00F04CF89446364A1466556671
:10360C00576716676246F0BD002B24DB11D00029EA
:10361C003EDA00B5C943404200D1013100F038F820
:10362C00C943404200D10131DB43524200D1013346
:10363C0000BD002AEBD1002801D1002905D00020C3
:10364C00C90FC90701D1C043410800B505F0BEF947
:10365C000022002300BD00B500290ADBDB435242E7
:10366C0000D1013300F014F8C943404200D10131BC
:10367C0000BDC943404200D10131DB43524200D16D
:10368C00013300F005F8DB43524200D1013300BD99
:10369C00002923D1002B18D1002A0CD0BC460D4F89
:1036AC0038667A6600210023FFE7FFE7FFE77A6FB1
:1036BC00386F67467047002801D00748010000B5F5
:1036CC0005F084F90022002300BD02000B0000204D
:1036DC0000217047000000D0FFFFFFFF002B00D03F
:1036EC00BFE0130C28D1002AE7D080B4114F396603
:1036FC007A66FFE7FFE730B4040C7B6F396F1B046D
:10370C0023433B667A66FFE7FFE7FFE7C04684B2D8
:10371C007B6F3D6F1B0423433B667A66FFE7FFE735
:10372C00C04600232C042D0C7A6F386F00196941A8
:10373C00B0BC7047000000D0F0B594460025140EC4
:10374C0001D112020835140F01D112010435940F66
:10375C0001D192000235D40F01D152000135D40BA6
:10376C000134254F7C66254C3C660E0C93B2FFE76A
:10377C00FFE7FFE73C6F6643360C7703BE467343A7
:10378C00DF0B5B04C01AB941130C7343DB18C91A65
:10379C00CE086643360CB64493B273431F0F1B011D
:1037AC00C01AB941130C73431F0B1B05C01AB94146
:1037BC00860D8F023E436643360C092D24DB520ADC
:1037CC007243801A7703460A6643360C16235B1B3A
:1037DC00DE40DF40BF1964466643821B70460435E9
:1037EC0006330100D940A840C01900D30131A242D0
:1037FC0006D20023F0BD0000000000D0FFFFFFFF49
:10380C00121B0130F3D3F1E709277F1BFE406446FE
:10381C00A2B27243801A00D20139220C7243130CEB
:10382C001204821A99410B007046043513370100BB
:10383C00F940A840801900D30131002B02D1A242DB
:10384C000AD2F0BD013000D30131121BFAD2013B78
:10385C00F8D1A24200D2F0BD013000D30131121BCD
:10386C00F7E7F0B51C0C00D080E00CB400251C0A66
:10387C0004D11B02160E3343120208351C0B04D163
:10388C001B01160F3343120104359C0B04D19B0012
:10389C00960F334392000235DC0B02D192185B4138
:1038AC0001351C00971864410134464F7C66464C28
:1038BC003C660E0CFFE7FFE7FFE7C0463C6F664334
:1038CC00360C7703BE4697B27743C01B00D2013942
:1038DC00C01B00D201399FB27743C91BC91B170CFF
:1038EC0077437E04FF0B801BB941CE086643360C30
:1038FC000C2D33DBB644120B1F053A431B0B97B24E
:10390C007743C01B00D201399FB27743C91B170CF8
:10391C0077433E043F0C801BB941860D8F023E431A
:10392C00664329277F1BFE400C3D7746AF40BF19ED
:10393C0030BCA2B2ABB272437343801A9941220CD1
:10394C007243130C1204801A994102000B000137C8
:10395C00001BA941F9D2781E0021F0BD0C277F1B5A
:10396C00FE4077467F0BAF40FF19E0E700245D1C5B
:10397C0007D0144F7D663966FFE7FFE7FFE7FFE7E7
:10398C003C6F95B29EB265436643401BB141150C2A
:10399C001E0C6543664336042F0C3E432D04401B1E
:1039AC00B141994204D202000B0020000021F0BD6D
:1039BC0001D19042F7D3801A994101349942F2D344
:1039CC00F6E70000000000D0FFFFFFFF132370B5E7
:1039DC001D78012D15D010DD2748FFF799FD274CD8
:1039EC0001008022200000F0D7F8022D06D02448D8
:1039FC00FFF786FD234B186070BD204C224AA26451
:103A0C00F5E72E001D4C204AA3085B421E401D42C8
:103A1C002FD0330022602020B1006118801B0A6077
:103A2C004A608A60CA600A614A618A61CA610A6234
:103A3C004A628A62CA620A634A638A63CA630A6414
:103A4C004A648A64CA640A654A658A65CA650A66F4
:103A5C004A668A66CA660A674A674008102803D114
:103A6C008A67CA67A264C2E71E339B00E250A26455
:103A7C00BDE70023CFE7C04653440000282B0220AB
:103A8C004C330000942901205D38002007B56046B6
:103A9C0001880A0A0230DF2AFAD1C9B2820804D39B
:103AAC00028840880004104300E00068014A50502E
:103ABC00039007BD282B022051434343C9188C4661
:103ACC00110C83B24B4310B4040C614392B280B21C
:103ADC00504362431C041B0C001910BC59411304C5
:103AEC00120CC0185141614470470000132310B5EB
:103AFC0012481C78FFF70CFD0100012C0AD003DDE5
:103B0C0080220F4800F048F80E48FFF7F9FC0E4BE6
:103B1C00186010BD0A4C5422200000F03DF80B4BED
:103B2C006365A365E36523666366A366E366236743
:103B3C006367A367E3672362E361E5E7534600002D
:103B4C00282C02204C33000094290120213900201C
:103B5C0007B5604601880A0A0230DF2AFAD1C9B2D9
:103B6C00820804D3028840880004104300E00068F7
:103B7C00014A5050039007BD282C02200148042113
:103B8C00014B1847309B0020F1320020014B1B6881
:103B9C0018470000309B0020014B5B681847000061
:103BAC00309B0020030010B508001B6811009847DB
:103BBC0010BDC046F8B54746CE4680B5437D0700DC
:103BCC000D001600002B37D000240020002A1EDD2B
:103BDC004B1E98461B4B9946002C2BD043461B5D25
:103BEC000D3B5A425341DBB22A5D0A2A13D00134F1
:103BFC00A642F1DC864203DD311A3B68281898474F
:103C0C00AD19013D2B780D3B5A4253413B750CBC11
:103C1C0090469946F8BD002BE9D1A04203DA211A4F
:103C2C003B6828189847484602213B68013498475E
:103C3C002000DDE73B7DD7E703681100280098479B
:103C4C00E5E7C046B0980020F0B5DE4657464E4634
:103C5C004546E0B585B017001C0006000D00FEF7C8
:103C6C0067FA0023324A12184B41002B5BDB3149B7
:103C7C0008008A4604F0E4FE01906B1C03D130006E
:103C8C0004F0A6FE0500002C28D12B4B98462B4B9C
:103C9C001C68002C15D0002F23D1294F02E0246979
:103CAC00002C0ED02368002BF9D03B68002B01D0E0
:103CBC00A342F4D120002A003100C0472469002C13
:103CCC00F0D1019B002B2AD1681E8541E8B205B0CA
:103CDC003CBC90469946A246AB46F0BD194B984663
:103CEC00D5E7174B994602ABDF1D0A239B4602E032
:103CFC002469002CE5D02368002BF9D04B461B68B7
:103D0C00002B01D0A342F3D12A0031002000C04780
:103D1C005B460122390020003B70C047E8E7504663
:103D2C0004F018FFD0E70122074B52429FE7C04630
:103D3C0040420F008C9B0020853900206CE2002053
:103D4C0074E2002075390020FFFFFF7FF0B5CE46EE
:103D5C00474680B583B06B460500DE1D3070FEF71C
:103D6C00E7F900231A4A12184B41002B2CDB194996
:103D7C000800884604F064FE174B07001C68002CF2
:103D8C0016D0164B994602E02469002C10D02368FB
:103D9C00002BF9D04B461B68002B01D0A342F3D16A
:103DAC00200001223100FFF705FF2469002CEED121
:103DBC00002F05D1280003B00CBC90469946F0BDED
:103DCC00404604F0C7FEF5E70122054B5242CEE710
:103DDC0040420F008C9B00206CE2002074E200201B
:103DEC00FFFFFF7F70B5040004F0F2FD002301001B
:103DFC00050001222000FFF727FF084B1C68002C50
:103E0C0006D06368002B05D098472469002CF8D1A4
:103E1C00280070BD2469002CF3D1F9E76CE2002076
:103E2C000A4A1368002B05D10CE01A001B691032EA
:103E3C00002B07D09842F8D1002902D103691360F6
:103E4C00016170470029FCD01060FAE76CE2002099
:103E5C00F0B50D1E15DD0E4B0D271A680D4B4519CF
:103E6C00D31859424B410C495B005E5E202104780B
:103E7C00A64207D093691942FCD101301460A842C4
:103E8C00F5D1F0BD93691942FCD11760F2E7C04639
:103E9C00FC2901200080FCBF242B022030B505003A
:103EAC00002926DD002010241B4B013D1A68936964
:103EBC001C4219D1013093691C42FCD113682B545C
:103ECC008142F4D1154B1B68002B0CD0502393630B
:103EDC00516B183B34320B401100802252010A43C3
:103EEC001360002815D030BD0C4B1B68002BEDD196
:103EFC00F7E70A4B1B68002B0BD050223821064BDE
:103F0C001B689A635A6B343311408022520113435D
:103F1C00196003204042E6E7FC290120F4E100206F
:103F2C00064B10B51B68002B06D00021044A126802
:103F3C009163044A1068984710BDC046F4E1002014
:103F4C00FC290120F8E100201D4BF0B51A68C6468B
:103F5C0098461C4B0E00D31859424B411A4F143340
:103F6C001C00050000B53B68002807D0002B11D0C1
:103F7C00164B3D601E6004BC9046F0BD002BF7D084
:103F8C00906300212000FEF79FFA20001049FEF7F5
:103F9C00BFFBEDE720000E49FEF7B0FA012120002F
:103FAC00FEF792FA4346502238211B689A635A6BEB
:103FBC00343311408022520113431960D8E7C046B4
:103FCC00FC2901200080FCBFF4E10020F8E1002076
:103FDC00F13C002070B50C4E0D001C003060002A26
:103FEC0003DB02211000FEF7E7FE002C03DB0221AD
:103FFC002000FEF7E1FE29003068FEF759FF012191
:10400C000248FFF70DFF70BDFC290120409B0020EA
:10401C0010B5024800F00CF810BDC0464C29012028
:10402C0010B508220149FFF7B7FD10BD4C2901203E
:10403C0030B5002589B004000922002101A80095A3
:10404C00FFF7A4FD0922002105A80495FFF79EFDAA
:10405C004B236A466846137004A90D2204F0C6FD72
:10406C001521082220006944FFF796FD09B030BDE8
:10407C0010B501210520FEF727FA10BD10B500225E
:10408C000021024800F05CF910BDC0469CE2002003
:10409C008022024B5202DA647047C0460020115055
:1040AC00F0B5C64600B5060000F024F90C231C4DF3
:1040BC00FF22AB6705201B49FEF74AFA40239846BE
:1040CC00194C402200212000FFF760FD41460023DF
:1040DC000127002221202183144967706380E27636
:1040EC00A1600B6022545F30608440462087053805
:1040FC000F4922540F4A6360E160A262136063624D
:10410C00E16204F0D5FD80239B052F64EB649023C2
:10411C00094A3000EA50FFF7BBFF04BC9046F0BDE3
:10412C0000001150F18B00207CE200208400105024
:10413C00000110508000105010D001000B785B066D
:10414C0002D14B78052B00D070478A78014B1A604E
:10415C00FAE7C04600001150F0B5C64600B5CC7861
:10416C0088780A794B797F21A40701401B02C50985
:10417C0013434F00A20F1400324E7A195201B21899
:10418C00907001206840507000205B055B0DD07072
:10419C001383D4768046CA00012D33D02A48844636
:1041AC00880162448446B444604682604046106094
:1041BC00002933D0254AC9009046624641445160DB
:1041CC003F223F339343022C00D15B0020487A19E5
:1041DC0001685201B218D1601E4ACB1803605140DD
:1041EC005340802288465201934228D84346A40665
:1041FC001C4380237F197F011B06F6191C4373682F
:10420C001C6011E014488446880162448446B4441E
:10421C006046826240461060002909D100236D017E
:10422C00761973600D4BF360012004BC9046F0BD11
:10423C00084AC9009046624641445162C0E7FFF704
:10424C002BF9D3E77CE200208400105004001050BE
:10425C0084E6002000001050800010500001105027
:10426C0010B504F025FD10BD10B57F200C002040CA
:10427C004000E409110000191A00034B4001C0185A
:10428C0000F05EF8012010BD7CE200207F231800B6
:10429C0010B508400B420BD0C909802240004018D1
:1042AC000649400140181201002105F0E1F810BD4B
:1042BC000223034AC9095B1A9366EEE77CE20020ED
:1042CC00002011507F23180010B508400B4200D17C
:1042DC0010BD00234000C909411804484901401889
:1042EC0000220349C37005F0C3F8F1E77CE200201B
:1042FC00FFF7FFFF80220D4B520410B51A600C4BD8
:10430C000C491A6010008B689843FBD10A4C9C2214
:10431C0000212000FFF73AFC8022002152010748BF
:10432C00FFF734FC0923636710BDC04600E0004072
:10433C0000F0004000C00040000011500000105080
:10434C0070B5837E04000D001600002B19D10023DC
:10435C002100E3820133A682A3762561A01C1B31C8
:10436C0005F050F8002804D080219023084A8902D7
:10437C00D150200005F05AF8002805D001232377EE
:10438C0070BD05F06FF8E2E7200005F09DF8F7E747
:10439C0000201150F0B5C64600B5244E244A050045
:1043AC0000243378234F002A32D0234A9046A3426C
:1043BC0024D8E31ADBB2022B1DD85A00D318DB0029
:1043CC00FB185B682800984733780134E4B29A1CD8
:1043DC00A242ECDA194C532200212000FFF7D6FB45
:1043EC001022FF21E01CFFF7D1FB20002022FF212F
:1043FC001330FFF7CBFB04BC9046F0BD424612686D
:10440C00630094461B19DB006344002BD9D1F2E7FF
:10441C0000247B682800984733780134023318371E
:10442C009C42D7DC032CE6D0F3E7C046E02A0220FE
:10443C0000000000A89900204C9D0020C09F002087
:10444C00024B5878431E9841C0B27047C09F002061
:10445C00024B18784007C00F7047C046C09F002021
:10446C00034B1878FF38431E9841C0B27047C046C2
:10447C007C9B0020F8B5CE46474680B5344E0500EF
:10448C0033780120FF2B03D00CBC90469946F8BD25
:10449C00532200212F48FFF779FB2F4C2000FDF70A
:1044AC00BBFA2E4B1C602E4C20001430FDF7D2FAB8
:1044BC00200001F015FF2B4B2B4F1C602B4B98460B
:1044CC00002B04D0380000E000BF294B1860424696
:1044DC0000243B78002A1ED0264A9046244A914656
:1044EC00A3422AD8E31ADBB2022B24D85A00D318E1
:1044FC00DB0043441B6898473B780134E4B29A1CB8
:10450C00A242EDDA28003570FFF7CAFD2800FFF74C
:10451C00AFFD0120B8E7174B0024984643461B68B3
:10452C00984718239C463B7801340233E0449C4264
:10453C00E8DC032CF2D10020A6E74A46126863009F
:10454C0094461B19DB006344002BD3D100209BE75E
:10455C007C9B0020C09F0020789F002014A000208E
:10456C00609B002018A00020E02A02200000000020
:10457C004C9D0020A8990020F0B5DE4657464E46CB
:10458C004546E0B58FB001F0EBFB002800D1C8E048
:10459C00C84BC94F994618239A46053B9B46C74DB5
:1045AC000BACBB442E687269EFF3108172B61368C2
:1045BC00002BFCD0BFF35F8FB1613000210001F004
:1045CC00D9FC7269B369BFF35F8F0021116083F36B
:1045DC001088002800D1A4E06378082BE2D84A4662
:1045EC009B00D3589F466368002BDBD0A06898478C
:1045FC00D8E77F222179B04B0A4056009B19984688
:10460C00C8098044404601233030C6789E43C670AA
:10461C00C67803339E43C670002A00D188E0434617
:10462C00A74ADB7C002A05D0A64A1278934270D3A5
:10463C009B1ADBB2022B74D85A00D218A24BD200B0
:10464C009B181E6962792078A368B047AAE70122FB
:10465C003B78012013433B7033230421FA5C8243E3
:10466C00FA54FA5C8A43FA540133FA5C8243FA54E2
:10467C00FA5C00208A43FA542378984600F078FCC0
:10468C00602223791A40602A0AD0402A56D0DB06D1
:10469C00DB0E012B00D199E0022B68D0002B5BD0F4
:1046AC0020780021FFF7F2FD80212078FFF7EEFD46
:1046BC0078E7814B1B78DB0700D473E7834B002B27
:1046CC0000D16FE700E000BF6CE77B4B1A78D20794
:1046DC0000D467E77E4A002A00D163E71878000708
:1046EC00C00F00E000BF5DE72078FFF753FE00F03D
:1046FC0035FC784B002B00D154E700E000BF51E7AC
:10470C002078FFF747FE00F029FC22796A4B9A705B
:10471C0048E75A00D218704BD2001B689B18002B2C
:10472C008FD10FB03CBC90469946A246AB46F0BD2B
:10473C0062792078A36800F02FFC33E767480028E3
:10474C00AED000F015FC012140460CAAFBF7BCFED4
:10475C00002800D026E7A3E7202A71D0002A9FD199
:10476C006379092B9CD85E4A9B00D3589F467023D3
:10477C00217A0B4294D10F330B405B00F818CE0911
:10478C0000934F4B8019C07C002B06D04D4B1B78EF
:10479C00984200D2B0E0C01AC0B202286AD84300D6
:1047AC009C46494B6044C0009C4603006344019303
:1047BC00002A64D0019EF3681800009300F0D8FB27
:1047CC0001214046F3680CAA9847C1E7237A0F2BC6
:1047DC0000D965E73A4AFB18DB78002A06D0394A3B
:1047EC001278934200D27DE09B1ADBB2022B00D9E7
:1047FC0056E75E00F318344EDB00F618F06800F054
:10480C00B7FB01214046F3680CAA9847002800D05A
:10481C00C8E66022160023791E401A4200D03FE7FA
:10482C0063790A3B012B00D93AE700F0A1FB6379CD
:10483C000A2B00D155E140460CA900F01BFBB1E658
:10484C00237A0F2B00D92BE71D4AFB18DB78002AA3
:10485C0006D01C4A1278934200D217E19B1ADBB2A5
:10486C00022B00D91CE75E00F318174EDB00F6187C
:10487C00F068A3E7002A00D012E7002301936079C7
:10488C000223020002909A43012A00D1DBE00028A7
:10489C0000D005E7009B0AAAFB189E193036F37866
:1048AC0002329B07DB0F1380404602230CA900F059
:1048BC00F9FA77E61C990020C09F002018A0002070
:1048CC0000000000E02A0220A8990020000000004F
:1048DC0000000000000000004C9D00209902002008
:1048EC0040990020C84A5E00F3181668DB00F618E1
:1048FC00002E00D1D4E681E743009C46C24B6044B5
:10490C001B68C0009C46030063440193002AB6D088
:10491C00002B00D04EE7C3E67B780AAA0232137054
:10492C00404601230CA900F0BDFA3BE6E088020AE0
:10493C00C0B20F2A00D9B3E6B4499300CB589F46B6
:10494C00A37904931A007B789A4207D07B78002BCA
:10495C0000D03FE1049B002B00D0CBE0049B4046F1
:10496C000CA97B7000F086FA1CE60CA800F006FB84
:10497C004046A179FFF782FB02223B7813433B7040
:10498C0010E6E388012B00D08AE608223B784046EB
:10499C0013430CA93B7000F06DFA03E6E388012B7E
:1049AC0000D07DE608223B78404693430CA93B702F
:1049BC0000F060FAF6E5022039780AAB9A1C8B06F7
:1049CC008908DB0F01400B436DE7914B002B00D1A5
:1049DC0066E6FBF7FDFD021E00D161E6D378917807
:1049EC001B020B4340460CA900F05CFAB0E6894B65
:1049FC00002B00D154E600E000BF021E00D14FE6B0
:104A0C00404613780CA900F04DFAA1E62189FBF77A
:104A1C00A1FD021EF4D143E6022A00D1E3E07E4B55
:104A2C00002B00D13CE600E000BF0200002A00D1C0
:104A3C0036E6D3E7FBF782FD122302000CA94046B1
:104A4C0000F030FA84E6E288002A08D1012827D049
:104A5C00009BFB189E193036F3789B0734D5019ECA
:104A6C00002E00D19EE5F3681800009300F080FA48
:104A7C00F36801210CAA40469847002000F078FA10
:104A8C003423FB5CDB0700D58CE5D4E65E4A5E0084
:104A9C00F3181668DB00F618002E00D100E6E7E6E6
:104AAC00009BFB189E193036F3789B07D7D55B4BD0
:104ABC001878FFF707FC0222F3789343F370F3782E
:104ACC00029A9343F370CAE7544B1878FFF7DEFB56
:104ADC000222F37813430122F370F3781343F3703B
:104AEC00BDE70AAB9A1C404601230CA9167000F0D6
:104AFC00D9F957E5581EC0B2FBF728FD002800D1A4
:104B0C00CEE543780793022B00D0C9E5012130266E
:104B1C00C3799A115B110A400B4052011B011343DC
:104B2C003A78B24313433B7009239C468444634652
:104B3C000093C37882781B021343C3180693434631
:104B4C0009910593069B009A934200D88EE0009B36
:104B5C00099A5B7803920B2B08D1009BDA780392AD
:104B6C001A0094461B789C4463460093009A537831
:104B7C00042B00D094E5069B9B1A9BB20293284A07
:104B8C00284B1B78002A51D0002290460192984560
:104B9C002DD34246D31ADBB2022B00D980E5524604
:104BAC005343214AD618029A00990598B36898473E
:104BBC008446082802D9029A824260D243460133C5
:104BCC00DBB298464246174B01921B789A1C424521
:104BDC00DDDA65E54046FFF743FBBE784046FFF75C
:104BEC00D9FBBE70B6E6FBF7B1FC02001EE7064B24
:104BFC0056461B68089343465E43089B9C46664496
:104C0C00002ED0D14CE5C0464C9D00206899002068
:104C1C00A103002000000000000000007C9B00208D
:104C2C0000000000E02A0220A89900200192019BBC
:104C3C00DAB29046032B00D132E556465E43274B41
:104C4C00029A9C46664400990598B3689847844636
:104C5C00082802D9029A824211D2214B019A1B7860
:104C6C000132023301929A42E1DD19E5059B984627
:104C7C001C4B002B00D171E600E000BF6EE6039BDD
:104C8C00012B24D0002240460BE0009B9B78D318CC
:104C9C00DBB2FB18D978FF2900D001E50132D870BE
:104CAC00D2B2039B9A42F0D1009E030062463100BF
:104CBC005846E04601F0D8F8330043440093084BC3
:104CCC00019A1B7802339A4200DC3BE7E8E4064B7E
:104CDC00B2689A42D6D1079B0393D3E7A8990020D8
:104CEC00E02A02200000000019510020F8B55746B8
:104CFC004E46DE4645460C00E0B516001F00002A65
:104D0C003CD0702398461E4B00259B461D4B9A4663
:104D1C001AE05B461B78200099465346997801F0BF
:104D2C0067F800281CD021004846FFF715FA002828
:104D3C0016D0A378DA09012A19D00A9A0135137012
:104D4C002378E418B54219DA6378052B08D1E37897
:104D5C009B079B0FBB4203D14246A3781A42D8D083
:104D6C0000203CBC90469946A246AB46F8BD0B9A37
:104D7C00013513702378E418B542E5DB0120F0E728
:104D8C007C9B0020C09F0020702270B58B780C009B
:104D9C001A4201D0002070BD064B20001D78064B36
:104DAC00997801F025F80028F4D021002800FFF7AD
:104DBC00D3F9F0E77C9B0020C09F00200B007F20E4
:104DCC0010B51840DB0940003333C318034A0448BC
:104DDC001168C01800F0C8FF10BDC04614A0002018
:104DEC00C09F00200B007F2010B51840DB0940004D
:104DFC003333C318034A04481168C01800F0DCFFB1
:104E0C0010BDC04614A00020C09F002070B57F24A8
:104E1C000C4060000E4CCD09241864193034E57830
:104E2C000020ED0700D570BD0126E5780948354313
:104E3C000078E570FFF718FA0028F4D10122E37826
:104E4C009343E370E37803329343E370EBE7C0469C
:104E5C00C09F00207C9B00207F22CB090A40044984
:104E6C0052008918C9183031C878C007C00F704774
:104E7C00C09F002070B50A4E0500082230000C00BF
:104E8C00FEF78AFE002161560023C943C90F280092
:104E9C00F3600022C901B360FFF7B8FF70BDC046D4
:104EAC00989E0020F8B5CE4647469046294E80B5D0
:104EBC008146082230000D001F00FEF76DFE4346B0
:104ECC00B3600023F381EC79AB7924021C43231CDF
:104EDC00BC4200D93B1C9FB2B381002C12D0002FD6
:104EEC001ED04346002B32D03B1C402F1ED89FB205
:104EFC0033787F2B1FD80021174A3B004846FFF719
:104F0C0085FF09E0002169560023C943C90F00221F
:104F1C004846C901FFF77AFF0CBC90469946F8BD8C
:104F2C0033787F2B10D980210022E6E740239FB2F3
:104F3C0033787F2BDFD9084C3A0041462000FEF72E
:104F4C002BFE80212200D8E700210022D5E700208B
:104F5C00E2E7C046989E0020809F002010B51422E6
:104F6C0000210248FEF712FE10BDC046989E00209C
:104F7C00014B18617047C046989E002010B5054C37
:104F8C00010008222000FEF707FE0023A360E36067
:104F9C0010BDC046989E0020F8B53A4C1D002378F1
:104FAC000600DA09C9098A4213D00020002D00D06E
:104FBC00F8BD354B002B03D021003000FFF7BEF8B5
:104FCC002369002B43D02200032130009847012095
:104FDC00EEE77F2B06D8A068002836D02A002B4994
:104FEC00FEF7DAFDA368E28959195219E38892B2E7
:104FFC00E281A160934214D03F2D12D9A589A81A41
:10500C00071C80B240282ED82378BFB27F2B2CD817
:10501C000021AA4234D01D4A3B003000FFF7F6FEB7
:10502C00C6E72369002B05D02200022130009847E7
:10503C0000280ED0002161560023C943C90F00225D
:10504C003000C901FFF7E2FEB2E70020B0E7012013
:10505C00AEE700213000FFF719F930008021FFF78F
:10506C0015F90120A4E74027CEE7AA4207D0074C48
:10507C003A002000FEF790FD80212200CCE7802131
:10508C000022C9E7989E00200D3F0020809F002041
:10509C0010B50400FFF7D4F9002801D1002010BD91
:1050AC00FFF7D6F90028F9D1A0000019C000044B75
:1050BC000019C0001818037901201840EFE7C0460A
:1050CC00509D002003008000C01810B5C000C0180F
:1050DC00C000034B1030C01800F018FF10BDC046C4
:1050EC00509D0020F0B584002418E4002418E4003E
:1050FC002600C646174F1036F61900B5300092B28E
:10510C0000F086FF0500300000F01EFF3F2803D89A
:10511C00280004BC9046F0BD3B190020D978984675
:10512C00FFF74CFE0028F3D0300000F00DFF3F28B5
:10513C0009D922004346C832D978D219402300201D
:10514C00FFF764FEE4E743460020D978FFF74AFEF8
:10515C00DEE7C046509D0020F8B584002418E4001A
:10516C002418E4002500134E1035AD19280001F069
:10517C00B7F8280000F0E8FE3F2800D8F8BD371932
:10518C000020F978FFF71AFE0028F7D0280000F06D
:10519C00DBFE3F2808D92200C8324023F978921947
:1051AC000020FFF733FEE9E7F9780020FFF71AFE3D
:1051BC00E4E7C046509D0020F8B50500FFF740F924
:1051CC00002801D10020F8BDFFF742F90028F9D1E1
:1051DC00AC006419E4006419E4002500134E243576
:1051EC00AD19280000F092FE0028EBD037190020F2
:1051FC00B978FFF7E3FD0028E4D00934FF34A41993
:10520C0021002800402200F003FFB978051E08D0C9
:10521C00030022000020FFF7F9FD0028D2D028005F
:10522C00D1E70020FFF7DEFDCCE7C046509D002003
:10523C0070B584002418E40024180A4BE4002434CC
:10524C00E418050092B2200000F09EFF060020003A
:10525C0000F05CFE3F2801D8300070BD2800FFF73D
:10526C00ABFFF9E7509D002003008000C01810B57B
:10527C00C000C018C000034B2430C01800F064FEFE
:10528C0010BDC046509D002003008000C01810B512
:10529C00C000C018C000034B2430C01801F020F827
:1052AC0010BDC046509D0020A42270B5194C82B090
:1052BC00002120005200FEF769FCFF236371164B9E
:1052CC000025E3800126082321002000268123737A
:1052DC006581402238310095073B103000F0DEFD2F
:1052EC000096210020002600012340227831B83698
:1052FC00243000F0D3FD3000FCF78EFB2662260034
:10530C00C0363000E561FCF787FB2663656302B0AD
:10531C0070BDC046509D002000C2FFFF10B5094C67
:10532C00052200212000FEF731FC2000243410302F
:10533C0000F0D6FF200000F0D3FF0121200000F088
:10534C00EFFF10BD509D0020F0B54B79060083B0E7
:10535C00022B02D18B79022B03D00025280003B03D
:10536C00F0BD2F4FBB78002BF7D18B7809253B7004
:10537C000C780C196378242B0BD1082A02D80FE077
:10538C00AA420DD32378E418ED186378ADB2242B20
:10539C00F6D0052B1FD0042B02D163790A2B2DD00C
:1053AC00204C200000F0D0FD3F28D7D92600103E1D
:1053BC000020F178FFF702FD0028CFD0200000F08C
:1053CC00C3FD3F2815D922004023F178B8320020C4
:1053DC00FFF71CFDC2E721003000FFF7D5FC0028C9
:1053EC00BBD0A3787B702378ED18E4186378ADB24A
:1053FC00D1E7F1780020FFF7F5FCAFE70A4B2778EF
:10540C00019301330093022202233000E119FFF7CC
:10541C006DFC0028A1D00E35ED19ADB2C0E7C04629
:10542C00509D0020609D0020529D0020F8B5602307
:10543C0014001278050013400020202B12D12F4E9F
:10544C006379277932781B023B439A420AD16378FD
:10545C00222B27D007D8202B17D0212B02D10129A2
:10546C003ED00120F8BD232BFCD1012940D00329CB
:10547C00F7D1234B002BF4D0E178A378090200205C
:10548C00194300E000BF0120ECE7012928D00329D3
:10549C00E7D11C4B002BE4D00020B11DFBF75AFACE
:1054AC000120DFE7012923D00329DAD101252F00C0
:1054BC003000A378E478023924021C43274034716D
:1054CC007940243000F02CFF0F4B002BC9D02A0060
:1054DC006408002039002240FBF77EFA0120C1E766
:1054EC00072321002800094AFFF7DCFC0120B9E75B
:1054FC0021002800FFF7BEFC0120B3E7509D0020DF
:10550C000000000025070020A9070020569D002060
:10551C00F8B557464E464546DE46E0B55C4F8046EC
:10552C00FA780C001E008A4264D19AB210233D0016
:10553C009946C835B9442900484600F025FE554B1C
:10554C00002B19D07B79FF2B16D0002E14D0AA1962
:10555C009246BB4603E0013555450DD07B792A7840
:10556C009A42F8D1484600F0E7FC0028F3D15B469C
:10557C00597900E000BFEEE7474B002B05D04846B9
:10558C0000F0DAFC002800D174E0484600F0DCFCA6
:10559C003F2857D84A46103A93789C4207D00124AA
:1055AC0020003CBC90469946A246AB46F8BD3B4B0E
:1055BC00002B02D0002000E000BFFEF741FF0028C6
:1055CC001DD1374C200000F0A1FC0028E7D1002EA3
:1055DC00E5D0B306E3D1243CA1784046FFF7EEFBBF
:1055EC002500041EDBD0002300224046A978FFF7DB
:1055FC000DFCD5E7BB788B42D9D00024D0E7FEF761
:10560C0027FF274C0028DDD1200000F07FFC00286C
:10561C00D8D02500243D0020A978FFF7CFFB002827
:10562C00D0D02700E43739004022200000F0F0FCF5
:10563C00A978031E27D03A000020FFF7E7FB0028CB
:10564C00ADD1BFE74D46103D0020E978FFF7B6FB22
:10565C00002801D1AB78A0E7484600F075FC3F2844
:10566C000BD94A4640230020E978B832FFF7CEFB2D
:10567C00AB7892E700E000BF87E70020E978FFF7FE
:10568C00B1FBAB7889E70020FFF7ACFB9AE7C0468B
:10569C00509D0020000000000000000000000000F1
:1056AC00749D0020F8B58C244746CE464443204ECA
:1056BC0080B53419050089460020617890461F009A
:1056CC00FFF77CFB00281DD04B46002B1ED03B1C4B
:1056DC003F2F29D88C244A466C439FB23319083487
:1056EC0034191A7241463A00601CFEF755FA01371C
:1056FC00BFB28C20454376193B0022000020717804
:10570C00FFF784FB0CBC90469946F8BD3B1C402F20
:10571C000CD88C246C4308349FB234193A0041469F
:10572C002000FEF739FAE4E73F23D3E74023F0E704
:10573C00EC9E002010B58C2200210248FEF726FAC0
:10574C0010BDC046EC9E002010B58C2200210248F2
:10575C00FEF71CFA10BDC046EC9E0020F0B54B794C
:10576C0006000D0083B0032B0AD10879C400241A5B
:10577C001234A4B2944203D81B4F7B78002B03D075
:10578C000024200003B0F0BD097869184B78212B58
:10579C00F6D18823F9500B780200C9187B1C0193B1
:1057AC00BB1C009330000323FFF7A0FA0028E7D0BE
:1057BC00AB79012B14D001233B71AB783B70882360
:1057CC00FA58137AD1791B020B43B978FB80002964
:1057DC00D7D03A00402330004832FFF717FBD0E710
:1057EC00EB79FB70E7E7C046EC9E00201F23F0B579
:1057FC0014001278050083B01340012B17D1614EB1
:10580C0020793378984212D160231800104013424B
:10581C0008D020280BD163780B2B08D85A4A9B0050
:10582C00D3589F4601290DD16378062B0CD000204C
:10583C0003B0F0BD012905D1012321002800534AF2
:10584C00FFF730FB0120F3E7E378212B7ED0222BEE
:10585C00EDD10020FAF776FE21000200F388280033
:10586C00FFF720FB0120E3E7012917D00329E9D139
:10587C00A178474B3171002BE4D0002000E000BF31
:10588C000120D5E70129DDD1E178424B7171002B64
:10589C0004D0002000E000BF0028C8D02100280060
:1058AC00FFF7E8FA0120C3E701295AD00329C9D12F
:1058BC00E079A37900021843E278A178041C40280F
:1058CC0000D94024344BA4B2002908D0012806D9B1
:1058DC004820305C884202D1013C304BA4B20020FD
:1058EC000094FAF7DBFD0120A2E70129AAD10123DC
:1058FC00210028002A4AFFF7D5FA012098E7012950
:10590C00A0D1E379A0791B020343E278A178181C9B
:10591C00402B00D9402080B2002930D0012B2ED949
:10592C00330001270138317280B209330090002016
:10593C00FAF7B2FD3F18BBB2002B00D177E721007C
:10594C002800184AFFF7AEFA012071E76733F258C6
:10595C00002A00D16BE7210028001378FFF7A2FA88
:10596C0066E7E379A2791B021343402B00D95EE76B
:10597C0021002800084AFFF795FA012058E7002774
:10598C00084BD3E7EC9E0020F0990020F09E0020FD
:10599C000000000000000000349F0020359F002014
:1059AC00F19E0020F49E002070B5164C0500A278E4
:1059BC0082B08A420ED16178914210D1124A0124F0
:1059CC00002A04D0002011499AB200E000BF200048
:1059DC0002B070BD627800248A42F8D1EEE726004E
:1059EC009BB2483600220021002000933300FAF7C6
:1059FC0055FDA178402332002800FFF707FA040078
:105A0C00E5E7C046EC9E002000000000F49E00205C
:105A1C00044B10B55843044B0430C01800F076FA10
:105A2C0010BDC046BC40000024A00020F0B5C64606
:105A3C00124C134F4443261DF61900B5300092B298
:105A4C0000F0E6FA3B190500997800209846FFF71C
:105A5C0003FA002803D0280004BC9046F0BD3000A7
:105A6C0000F072FA3F28F6D9064B0020E2184346A4
:105A7C00D21999784023FFF7C9F9ECE7BC40000034
:105A8C0024A000203C400000F0B5184CC64644430E
:105A9C002600174F1836F61900B5300092B200F0F8
:105AAC0073FB0500300000F031FA3F2803D82800C2
:105ABC0004BC9046F0BD3B19002059789846FFF77E
:105ACC00CBF90028F3D10B4B40229C466444E419DB
